:1000000062C0000088C0000086C0000084C00000FC
:1000100082C0000080C000007EC000007CC00000E4
:100020007AC0000078C0000076C000000C94510C2B
:1000300072C0000070C000006EC000006CC0000004
:100040000C94370E68C000000C94E0100C94121150
:1000500062C0000060C000005EC000005CC0000024
:100060005AC0000058C00000000000080002010053
:100070000003040700000000000000000102040863
:100080001020408001020408102001020408102002
:10009000040404040404040402020202020203032E
:1000A00003030303000000002300260029000000D2
:1000B0000000250028002B0000000000240027007D
:1000C0002A003801371111241FBECFEFD8E0DEBF60
:1000D000CDBF11E0A0E0B1E0E4E9F4E202C0059098
:1000E0000D92A632B107D9F722E0A6E2B1E001C035
:1000F0001D92A93BB207E1F710E0C3E6D0E004C0CF
:100100002197FE010E942912C136D107C9F70E942A
:100110009F090C94481274CFCF93DF93882349F042
:10012000EB0181500E94E10E99838883DF91CF918A
:100130000895FB0111821082F9CF0F931F938B0159
:100140009C0183E036952795179507958A95D1F7F9
:100150000A5D1E4F462F477021E030E0F90102C0D2
:10016000EE0FFF1F4A95E2F7AF01F801208124232B
:10017000CB010196211102C090E080E01F910F9108
:1001800008950F931F938B019C0183E0369527956B
:10019000179507958A95D1F7677081E090E001C0C7
:1001A000880F6A95EAF7F801EA5DFE4F2081452B3A
:1001B00031F48095822380831F910F910895822BC3
:1001C000FACFCF92DF92EF92FF92CF93DF936B0142
:1001D0007C0160E08EE0C816D104E104F10490F4E3
:1001E0008EE08C0D0E94250FE6012196AE01C7011D
:1001F000B601C7DFCE01DF91CF91FF90EF90DF9086
:10020000CF9008958C2DEECF882341F08150682F38
:1002100070E090E080E050E040E0B3CF08956111DD
:1002200002C00C94250F6130E1F362E0FACF66233F
:1002300019F061E00C94610F60E0FCCF0E948E0F1A
:1002400021E0019709F020E0822F089570E023E07B
:10025000829FC0011124815D9E4F0C94A20D70E01D
:1002600023E0829FC0011124815D9E4F0C94DE0D1E
:100270008FE291E00E940A0D82E391E00E940A0D54
:1002800085E391E00E940A0D88E391E00C940A0D49
:10029000CF92DF92EF92FF926B017C019F7720E07B
:1002A00030E040E859E50E944D0A87FF2BC020E06E
:1002B00030E040E05FE3C701B6010E94EA0B87FD32
:1002C0000EC020E030E040E05FE3C701B6010E94CD
:1002D000D609FF90EF90DF90CF900C94220B20E096
:1002E00030E040E05FEBC701B6010E94EA0B181650
:1002F00084F420E030E0A901C701B6010E94EE0BB2
:100300006B017C01C701B601FF90EF90DF90CF90A9
:10031000089520E030E040E05FE3C701B6010E94AD
:10032000D509FF90EF90DF90CF900C943A0A4F924E
:100330005F926F927F928F929F92AF92BF92CF9275
:10034000DF92EF92FF920F931F93CF93DF9300D032
:10035000CDB7DEB76FE070E080E090E0EEDE909326
:100360001D0280931C0243E050E0BE016F5F7F4F8F
:10037000D3DEC980DA808CE061DF182F8DE05EDF8C
:100380008093B60283E15ADFF82E80919E0200919D
:10039000B602811146C021E020939E0280E090E0E9
:1003A000A4EBB2E480936E0290936F02A09370026C
:1003B000B09371028093720290937302A0937402BF
:1003C000B09375028093760290937702A09378029F
:1003D000B093790280937A0290937B02A0937C027F
:1003E000B0937D0210928A0210928B0210928C02BE
:1003F00010928D0210928202109283021092840257
:100400001092850220939F021092B2021092B302C2
:100410001092B4021092B5022093A0021092A10291
:10042000E9C2B60190E080E00E94E50A20919F02B7
:10043000223009F4E9C2233009F4B9C3213009F0AC
:1004400067C41092B2021092B3021092B4021092DA
:10045000B502112341F010928A0210928B02109281
:100460008C0210928D0280908A0290908B02A09054
:100470008C02B0908D022EE182169104A104B10489
:1004800008F40BC210929A0210929B0210929C02E6
:1004900010929D021092860210928702109288029A
:1004A0001092890282E080939F0281E08093A002F3
:1004B0001092A102C12CD12C7601812C912C40E804
:1004C000A42E4FE3B42EC701B601111103C540900D
:1004D0007E0250907F0260908002709081022FEF28
:1004E000421A520A620A720A40927E0250927F02B7
:1004F00060928002709281020111F5C440908202E4
:100500005090830260908402709085022FEF421A0F
:10051000520A620A720A40928202509283026092E8
:10052000840270928502409086025090870260900B
:100530008802709089022FEF421A520A620A720AE8
:1005400040928602509287026092880270928902DD
:1005500040908E0250908F026090900270909102B5
:100560002FEF421A520A620A720A40928E02509289
:100570008F02609290027092910240909602509089
:10058000970260909802709099022FEF421A520AD7
:10059000620A720A40929602509297026092980202
:1005A000709299021111C0C400918A0210918B02BD
:1005B00020918C0230918D020F5F1F4F2F4F3F4FC4
:1005C00000938A0210938B0220938C0230938D0249
:1005D0000091920210919302209194023091950221
:1005E0000F5F1F4F2F4F3F4F0093920210939302C4
:1005F000209394023093950200919A0210919B02ED
:1006000020919C0230919D020F5F1F4F2F4F3F4F53
:1006100000939A0210939B0220939C0230939D02B8
:1006200037DE2B013C0120E030E040E853E435D7D1
:100630006FEF87FF0DC020E030E0A901C301B201D8
:100640000E94EA0B60E087FD03C0C301B20191D7AD
:1006500082E0EDDDC501B4011BDE4B015C0120E051
:1006600030E040E853E419D76FEF87FF0DC020E07A
:1006700030E0A901C501B4010E94EA0B60E087FDEA
:1006800003C0C501B40175D784E0D1DDC701B6014F
:10069000FFDD6B017C0120E030E040E853E4FDD653
:1006A0006FEF87FF0DC020E030E0A901C701B60160
:1006B0000E94EA0B60E087FD03C0C701B60159D76D
:1006C00087E0B5DD6091B2027091B3028091B4020F
:1006D0009091B502DDDD6B017C0120E030E040E867
:1006E00053E4DBD66FEF87FF0DC020E030E0A901B7
:1006F000C701B6010E94EA0B60E087FD03C0C70195
:10070000B60137D788E093DDC090A202D090A30253
:10071000E090A402F090A50220E030E0A901C7011A
:10072000B601BBD660E087FD1BC020E030E044E3AB
:1007300053E4C701B6010E94EA0B64EB181684F07B
:10074000C701B601A5DD6B017C0120E030E040E887
:1007500053E4A3D66FEF87FF03C0C701B60109D7E3
:1007600080E07DDDC090A602D090A702E090A802B4
:10077000F090A90220E030E0A901C701B6018DD6B2
:1007800060E087FD1BC020E030E044E353E4C70194
:10079000B6010E94EA0B64EB181684F0C701B6019B
:1007A00077DD6B017C0120E030E040E853E475D652
:1007B0006FEF87FF03C0C701B601DBD681E04FDDD5
:1007C000C090AA02D090AB02E090AC02F090AD02D3
:1007D00020E030E0A901C701B6015FD660E087FDE7
:1007E0001AC020E030E044E353E4C701B601F2D779
:1007F00064EB181684F0C701B6014ADD6B017C0179
:1008000020E030E040E853E448D66FEF87FF03C0B4
:10081000C701B601AED682E022DDC090AE02D09014
:10082000AF02E090B002F090B10220E030E0A90108
:10083000C701B60132D660E087FD1AC020E030E083
:1008400044E353E4C701B601C5D764EB181684F03E
:10085000C701B6011DDD6B017C0120E030E040E8FE
:1008600053E41BD66FEF87FF03C0C701B60181D6E3
:1008700083E0F5DC0F900F90DF91CF911F910F91E6
:10088000FF90EF90DF90CF90BF90AF909F908F90B0
:100890007F906F905F904F900895002341F01092E9
:1008A000820210928302109284021092850280903C
:1008B000820290908302A0908402B09085022EE183
:1008C00082169104A104B10450F110928E0210928C
:1008D0008F02109290021092910210927E0210925A
:1008E0007F02109280021092810284E080939F0226
:1008F00080E090E0A0E8BFE38093B2029093B3025F
:10090000A093B402B093B50281E08093A00210924C
:10091000A102C12CD12C760146015701F6C12091CC
:10092000A002222339F0F11005C021E02093A1029A
:100930001092A0022091A1022223E1F020E030ECED
:100940004FE754E4AED520E030E040E05FE32DD542
:1009500020E030E044E353E441D720E030E044EBD2
:1009600052E424D560936E0270936F0280937002FC
:100970009093710280916E0290916F02A09170022B
:10098000B09171028093A2029093A302A093A4025B
:10099000B093A5028091720290917302A0917402AB
:1009A000B09175028093A6029093A702A093A8022B
:1009B000B093A9028091760290917702A09178027B
:1009C000B09179028093AA029093AB02A093AC02FB
:1009D000B093AD0280917A0290917B02A0917C024B
:1009E000B0917D028093AE029093AF02A093B002CB
:1009F000B093B102C12CD12C76014601570160E0C1
:100A000070E080E89FE361CD1092B2021092B302D1
:100A10001092B4021092B502112341F010929A0282
:100A200010929B0210929C0210929D0280909A025A
:100A300090909B02A0909C02B0909D022EE18216A5
:100A40009104A104B104C8F010929602109297028A
:100A500010929802109299021092920210929302B0
:100A6000109294021092950283E080939F0281E09D
:100A70008093A0021092A1023FC1002341F0109286
:100A8000860210928702109288021092890280904A
:100A9000860290908702A0908802B09089022EE191
:100AA00082169104A104B104B0F010928A0210924F
:100AB0008B0210928C0210928D0210928202109280
:100AC0008302109284021092850281E080939F023B
:100AD0008093A002A3CC2091A002222339F0F11030
:100AE00005C021E02093A1021092A0022091A10252
:100AF0002223E1F020E030EC4FE754E4D2D420E0B0
:100B000030E040E05FE351D420E030E044E353E4E0
:100B100065D620E030E044EB52E448D460937202A2
:100B200070937302809374029093750280916E02A9
:100B300090916F02A0917002B09171028093A20215
:100B40009093A302A093A402B093A5028091720295
:100B500090917302A0917402B09175028093A602E5
:100B60009093A702A093A802B093A9028091760265
:100B700090917702A0917802B09179028093AA02B5
:100B80009093AB02A093AC02B093AD0280917A0235
:100B900090917B02A0917C02B0917D028093AE0285
:100BA0009093AF02A093B002B093B10283CC1092A5
:100BB000B2021092B3021092B4021092B502112345
:100BC00041F01092920210929302109294021092AD
:100BD00095028090920290909302A0909402B0901F
:100BE00095022EE182169104A104B10408F06DCEA5
:100BF000002341F0109296021092970210929802F0
:100C0000109299028090960290909702A09098027C
:100C1000B09099022EE182169104A104B10408F06B
:100C200031CC2091A002222339F0F11005C021E03F
:100C30002093A1021092A0022091A1022223E1F0B0
:100C400020E030EC4FE754E42CD420E030E040E0EA
:100C50005FE3ABD320E030E044E353E4BFD520E0D2
:100C600030E044EB52E4A2D36093760270937702B3
:100C7000809378029093790280916E0290916F0236
:100C8000A0917002B09171028093A2029093A3028E
:100C9000A093A402B093A502809172029091730276
:100CA000A0917402B09175028093A6029093A7025E
:100CB000A093A802B093A902809176029091770246
:100CC000A0917802B09179028093AA029093AB022E
:100CD000A093AC02B093AD0280917A0290917B0216
:100CE000A0917C02B0917D028093AE029093AF02FE
:100CF000A093B002B093B102C12CD12C30E8E32E06
:100D00003FE3F32E812C912C5401C501B401DDCBBE
:100D1000812C912C20E8A22E2FE3B22E8092B202D9
:100D20009092B302A092B402B092B502002341F0B7
:100D300010928E0210928F021092900210929102E5
:100D400080908E0290908F02A0909002B0909102BD
:100D50002EE182169104A104B104E0F010929602F3
:100D60001092970210929802109299021092920299
:100D700010929302109294021092950283E0809355
:100D80009F021092B2021092B3021092B40210921B
:100D9000B5026DCE112341F010927E0210927F02B7
:100DA000109280021092810280907E0290907F02C9
:100DB000A0908002B09081022EE182169104A104DD
:100DC000B104E0F010928A0210928B0210928C0211
:100DD00010928D021092820210928302109284026D
:100DE0001092850281E080939F021092B2021092CD
:100DF000B3021092B4021092B5026ACE2091A00202
:100E0000222339F0F11005C021E02093A1021092B5
:100E1000A0022091A1022223E1F020E030EC4FE774
:100E200054E43FD320E030E040E05FE3BED220E076
:100E300030E044E353E4D2D420E030E044EB52E429
:100E4000B5D260937A0270937B0280937C02909378
:100E50007D0280916E0290916F02A0917002B0911C
:100E600071028093A2029093A302A093A402B09374
:100E7000A5028091720290917302A0917402B091C8
:100E800075028093A6029093A702A093A802B09344
:100E9000A9028091760290917702A0917802B09198
:100EA00079028093AA029093AB02A093AC02B09314
:100EB000AD0280917A0290917B02A0917C02B09168
:100EC0007D028093AE029093AF02A093B002B093E4
:100ED000B1021FCD10927E0210927F02109280020A
:100EE0001092810209CB109282021092830210921A
:100EF000840210928502109286021092870210924C
:100F000088021092890210928E0210928F02109223
:100F100090021092910210929602109297021092F3
:100F20009802109299023ECB10928A0210928B0284
:100F300010928C0210928D021092920210929302E3
:100F4000109294021092950210929A0210929B02B3
:100F500010929C0210929D0263CBCF92DF92EF928F
:100F6000FF921F93CF93DF93C6E1D2E0E0E0F1E080
:100F700080819181A281B38180936E0290936F02F0
:100F8000A0937002B093710284819581A681B7818C
:100F90008093720290937302A0937402B0937502CF
:100FA00080859185A285B3858093760290937702A0
:100FB000A0937802B093790284859585A685B7853C
:100FC00080937A0290937B02A0937C02B0937D027F
:100FD0001882C12CD12C7601C394C982DA82EB82AB
:100FE000FC826FE070E080E090E0EBD89F838E831E
:100FF00011E01D83188EC98EDA8EEB8EFC8E62E0B6
:101000008CE00DD91D8F188AC98ADA8AEB8AFC8A8E
:1010100062E08DE004D91D8B1886C986DA86EB86DE
:10102000FC8662E083E1FBD81D8718AEC9AEDAAE5C
:10103000EBAEFCAE61E082E0F2D81DAF18AAC9AAFF
:10104000DAAAEBAAFCAA61E084E0E9D81DAB18A6F5
:10105000C9A6DAA6EBA6FCA661E087E0E0D81DA74A
:1010600018A2C9A2DAA2EBA2FCA261E088E0D7D85C
:101070001DA310926802C0926902D0926A02E092A7
:101080006B02F0926C026AE080E0E0D810936D028F
:1010900010926202C0926302D0926402E0926502F2
:1010A000F092660269E081E0D1D810936702109255
:1010B0005C02C0925D02D0925E02E0925F02F0920A
:1010C000600266E082E0C2D810936102109256027C
:1010D000C0925702D0925802E0925902F0925A02FE
:1010E00065E083E0B3D810935B02DF91CF911F914D
:1010F000FF90EF90DF90CF900895809116028111BC
:101100001DC081E080931602809117029091180211
:10111000A0911902B0911A020197A105B10571F4CD
:1011200080911B02882351F06FE070E080E090E036
:1011300004D890931D0280931C0266D880912E02E1
:10114000811103C081E080932E02809126028111DB
:1011500003C081E08093260280911E02811103C0AA
:1011600081E080931E0280914E02811103C081E0D4
:1011700080934E0280914602811103C081E08093EA
:10118000460280913E02811103C081E080933E02BD
:1011900080913602811103C081E0809336028091F4
:1011A0006802811103C081E080936802809162022D
:1011B000811103C081E08093620280915C02811101
:1011C00003C081E080935C0280915602811103C0CC
:1011D00081E080935602089526E030E040E855E231
:1011E00060E070E090E080E000C010923E0110925C
:1011F0003D0189309105E8F48F5F964FFC010C9416
:1012000029120A0913091A091D09200923092609A7
:1012100029092F0981E090E090933E0180933D01E0
:1012200089E791E06DC782E090E090933E01809362
:101230003D01089584E090E0F8CF88E090E0F5CF9C
:1012400080E190E0F2CF80E290E0EFCF80E490E0A8
:10125000ECCF80E890E090933E0180933D01809137
:101260003D0190913E019160E0CF0895CF92DF92D1
:10127000EF92FF920F931F9344D560933F017093B9
:1012800040018093410190934201009143011091EC
:10129000440120914501309146016B017C01C01A47
:1012A000D10AE20AF30A97018601003A1648214062
:1012B000310508F160934301709344018093450127
:1012C0009093460125D01DD5009143011091440112
:1012D0002091450130914601601B710B820B930BED
:1012E000603A76488140910570F081E090E09093FB
:1012F00049018093480181E01F910F91FF90EF9089
:10130000DF90CF9008951092490110924801F3CFD9
:101310008091470191E0980F90934701882349F00D
:1013200021E030E030934901209348018093470148
:1013300008950E949701809147018150F7CFCF9384
:10134000DF931092B8021092B70200D545DFC0912A
:101350001101D091120119821882FFDDF89485DF06
:101360002881398181E0232B09F080E08093B70246
:1013700078948091B702811107C0BFDEF89490E0A5
:1013800080E0DF91CF9108952881398181E0232B7E
:1013900009F480E08093B8029091B80281E0911145
:1013A00080E08093B70262DFE4CF5058BB27AA27C2
:1013B0000ED0BFC1B0D130F0B5D120F031F49F3F95
:1013C00011F41EF4A5C10EF4E095E7FB72C1E92FFC
:1013D000C1D180F3BA17620773078407950718F025
:1013E00071F49EF5F0C10EF4E0950B2EBA2FA02DEE
:1013F0000B01B90190010C01CA01A0011124FF27C2
:10140000591B99F0593F50F4503E68F11A16F040BC
:10141000A22F232F342F4427585FF3CF46953795BB
:101420002795A795F0405395C9F77EF41F16BA0B80
:10143000620B730B840BBAF09150A1F0FF0FBB1F2E
:10144000661F771F881FC2F70EC0BA0F621F731F77
:10145000841F48F4879577956795B795F7959E3FD4
:1014600008F0B3CF9395880F08F09927EE0F979562
:101470008795089591D180F09F3740F491110EF433
:10148000A3C160E070E080E89FE3089526F01B169A
:10149000611D711D811D13C12DC1E7D008F481E0CC
:1014A00008950CD046C13ED140F035D130F021F442
:1014B0005F3F19F0FEC0511187C12AC14BD198F38B
:1014C0009923C9F35523B1F3951B550BBB27AA27C5
:1014D00062177307840738F09F5F5F4F220F331F37
:1014E000441FAA1FA9F333D00E2E3AF0E0E830D003
:1014F00091505040E695001CCAF729D0FE2F27D006
:10150000660F771F881FBB1F261737074807AB07D3
:10151000B0E809F0BB0B802DBF01FF2793585F4F48
:101520002AF09E3F510568F0C4C04EC15F3FECF306
:10153000983EDCF3869577956795B795F7959F5F0D
:10154000C9F7880F911D9695879597F90895E1E061
:10155000660F771F881FBB1F621773078407BA07C0
:1015600020F0621B730B840BBA0BEE1F88F7E0951B
:101570000895F8D088F09F5790F0B92F9927B75168
:10158000A0F0D1F0660F771F881F991F1AF0BA9547
:10159000C9F712C0B13081F016D1B1E0089513C17E
:1015A000672F782F8827B85F39F0B93FCCF386953D
:1015B00077956795B395D9F73EF49095809570959A
:1015C00061957F4F8F4F9F4F0895E89409C097FB17
:1015D0003EF490958095709561957F4F8F4F9F4F0A
:1015E0009923A9F0F92F96E9BB279395F69587954E
:1015F00077956795B795F111F8CFFAF4BB0F11F411
:1016000060FF1BC06F5F7F4F8F4F9F4F16C08823B7
:1016100011F096E911C0772321F09EE8872F762FED
:1016200005C0662371F096E8862F70E060E02AF02E
:101630009A95660F771F881FDAF7880F969587951A
:1016400097F90895A9D080F09F3740F491110EF0DA
:10165000BBC060E070E080E89FEB089526F41B16A5
:10166000611D711D811D2BC045C0990F0008550FCC
:10167000AA0BE0E8FEEF16161706E807F907C0F018
:1016800012161306E407F50798F0621B730B840B20
:10169000950B39F40A2661F0232B242B252B21F4FA
:1016A00008950A2609F4A140A6958FEF811D811D9A
:1016B000089597F99F6780E870E060E008958823B7
:1016C00071F4772321F09850872B762F07C066237B
:1016D00011F499270DC09051862B70E060E02AF03C
:1016E0009A95660F771F881FDAF7880F969587956A
:1016F00097F908959F3F31F0915020F487957795A1
:101700006795B795880F911D9695879597F90895D8
:101710009FEF80EC089500240A9416161706180609
:101720000906089500240A941216130614060506E5
:101730000895092E0394000C11F4882352F0BB0F76
:1017400040F4BF2B11F460FF04C06F5F7F4F8F4FD9
:101750009F4F089557FD9058440F551F59F05F3F14
:1017600071F04795880F97FB991F61F09F3F79F0C3
:1017700087950895121613061406551FF2CF469545
:10178000F1DF08C0161617061806991FF1CF8695C7
:101790007105610508940895E5DFA0F0BEE7B9176B
:1017A00088F4BB279F3860F41616B11D672F782F79
:1017B0008827985FF7CF869577956795B11D9395A4
:1017C0009639C8F30895E894BB2766277727CB019D
:1017D00097F908954ADF08F48FEF08950BD0A9CF49
:1017E0009ADF28F09FDF18F0952309F062CF90CFA1
:1017F0001124EACFAFDFA0F3959FD1F3950F50E00E
:10180000551F629FF001729FBB27F00DB11D639FB2
:10181000AA27F00DB11DAA1F649F6627B00DA11D58
:10182000661F829F2227B00DA11D621F739FB00DFE
:10183000A11D621F839FA00D611D221F749F33276E
:10184000A00D611D231F849F600D211D822F762F07
:101850006A2F11249F5750408AF0E1F088234AF004
:10186000EE0FFF1FBB1F661F771F881F9150504050
:10187000A9F79E3F510570F01CCFA6CF5F3FECF358
:10188000983EDCF3869577956795B795F795E7953C
:101890009F5FC1F7FE2B880F911D9695879597F94D
:1018A00008951F920F920FB60F9211242F933F931A
:1018B0004F935F936F937F938F939F93AF93BF9358
:1018C000EF93FF9380914B0187FF27C01092850013
:1018D0001092840080914B018F5F80934B01809127
:1018E0004B01082E000C990B20914A01281719066C
:1018F00029F024F080914B018C30D4F18091840048
:1019000090918500049680349C4908F479C08091B8
:10191000840090918500049675C080914B01082E3B
:10192000000C990B20914A012817190699F294F29C
:10193000E0914B018E2FEE0F990BFC01EE0FFF1F74
:10194000E80FF91FE45BFE4F808186FFC3CFE09173
:101950004B018E2FEE0F990BFC01EE0FFF1FE80FCE
:10196000F91FE45BFE4F808160E08F73AAD2B2CF93
:101970002091840030918500E0914B018E2FEE0F75
:10198000990BFC01EE0FFF1FE80FF91FE45BFE4F00
:1019900081819281820F931F9093890080938800A8
:1019A000E0914B018E2FEE0F990BFC01EE0FFF1F04
:1019B000E80FF91FE45BFE4F808186FF10C0E091C5
:1019C0004B018E2FEE0F990BFC01EE0FFF1FE80F5E
:1019D000F91FE45BFE4F808161E08F7372D2FF914B
:1019E000EF91BF91AF919F918F917F916F915F9197
:1019F0004F913F912F910F900FBE0F901F90189510
:101A000080E49CE990938900809388008FEF809315
:101A10004B01E5CFFC0190914A019C3098F481E0A4
:101A2000890F80934A019083892F90E0FC01EE0F8B
:101A3000FF1FE80FF91FE45BFE4F88EB9BE09283EA
:101A4000818308958FEF80830895DF92EF92FF9254
:101A50000F931F93CF93DF93EC01D62E7A01890168
:101A600088818C3008F065C061E08D2DEED18881D1
:101A7000282F30E0F901EE0FFF1FE20FF31FE45BA8
:101A8000FE4F9D2D9F736081607C692B608320E2F7
:101A900032E02E193F0937FF02C02D5F3F4F3595C9
:101AA000279535952795298320E639E0201B310BB2
:101AB00037FF02C02D5F3F4F359527953595279508
:101AC0002A832CE0622F7BD4829FB001112430E066
:101AD00020E0AB01420F531FFA01EE0FFF1FE40F8E
:101AE000F51FE45BFE4F908196FD16C02F5F3F4FC0
:101AF0002C30310571F781110FC01092800082E007
:101B0000809381001092850010928400B19A809198
:101B10006F00826080936F00E8818E2F90E0FC015F
:101B2000EE0FFF1FE80FF91FE45BFE4F808180641A
:101B300080838881DF91CF911F910F91FF90EF906B
:101B4000DF90089520E639E040E252E07ECFDC01EC
:101B5000EC91EC3090F511968C91119728E830E0DB
:101B6000281B310987FD3395220F331F220F331FA6
:101B70006217730784F012968C9128E532E0281BD7
:101B8000310987FD3395220F331F220F331F621750
:101B900073070CF49B0122503109220F331F4FB7FA
:101BA000F8948E2F90E0FC01EE0FFF1FE80FF91F55
:101BB000E45BFE4F328321834FBF0895AF92BF9203
:101BC000CF92DF92EF92FF920F931F93CF93DF9309
:101BD000EC01603282E078070CF03DC0653B710596
:101BE00014F064EB70E0898148E8A42EB12CA81AA7
:101BF000B10887FDB394AA0CBB1CAA0CBB1C0B2C10
:101C0000000CCC08DD0877FF02C070E060E0072E12
:101C1000000C880B990B2A8108E512E0021B1109C0
:101C200027FD1395000F111F000F111F012E000C2F
:101C3000220B330B3F932F931F930F9314EBE12E43
:101C4000F12C00E010E020E030E0A9016AD30F9011
:101C50000F900F900F90CE01DF91CF911F910F91B8
:101C6000FF90EF90DF90CF90BF90AF9070CF1F921A
:101C70000F920FB60F9211242F933F938F939F9340
:101C8000AF93BF938091710190917201A091730104
:101C9000B09174013091700123E0230F2D3758F576
:101CA0000196A11DB11D2093700180937101909345
:101CB0007201A0937301B0937401809175019091AA
:101CC0007601A0917701B09178010196A11DB11D17
:101CD0008093750190937601A0937701B09378017A
:101CE000BF91AF919F918F913F912F910F900FBE18
:101CF0000F901F90189526E8230F0296A11DB11D85
:101D0000D2CF3FB7F8948091750190917601A09160
:101D10007701B091780126B5A89B05C02F3F19F037
:101D20000196A11DB11D3FBFBA2FA92F982F88275B
:101D3000BC01CD01620F711D811D911D42E0660F36
:101D4000771F881F991F4A95D1F70895789484B515
:101D5000826084BD84B5816084BD85B5826085BDA7
:101D600085B5816085BDEEE6F0E08081816080838D
:101D7000E1E8F0E010828081826080838081816070
:101D80008083E0E8F0E0808181608083E1EBF0E037
:101D9000808184608083E0EBF0E0808181608083DB
:101DA000EAE7F0E0808184608083808182608083C4
:101DB0008081816080838081806880831092C100EF
:101DC00008958E3008F08E502091100190E4299FE4
:101DD000900111248770822B80937C0080917A007F
:101DE000806480937A0080917A0086FDFCCF809198
:101DF0007800909179000895833081F028F4813043
:101E000099F08230A9F008958730A9F08830C9F0A0
:101E10008430B1F4809180008F7D03C08091800078
:101E20008F7780938000089584B58F7784BD08955F
:101E300084B58F7DFBCF8091B0008F778093B00009
:101E400008958091B0008F7DF9CFCF93DF9390E01C
:101E5000FC01E458FF4F249180579F4FFC0184916F
:101E60008823C9F090E0880F991FFC01E854FF4FC8
:101E7000A591B491FC01E255FF4FC591D491611138
:101E80000DC09FB7F8948C91209582238C93888104
:101E9000282328839FBFDF91CF910895623051F4AA
:101EA0009FB7F8943C91822F809583238C93E8818F
:101EB0002E2BEFCF8FB7F894EC912E2B2C938FBF56
:101EC000EACF1F93CF93DF93282F30E0F901E85931
:101ED000FF4F8491F901E458FF4FD491F901E05785
:101EE000FF4FC491CC23A1F0162F811185DFEC2F79
:101EF000F0E0EE0FFF1FE255FF4FA591B4918FB7B1
:101F0000F894EC91111108C0D095DE23DC938FBFBB
:101F1000DF91CF911F910895DE2BF8CFCF93DF9300
:101F2000282F30E0F901E859FF4F8491F901E45876
:101F3000FF4FD491F901E057FF4FC491CC2399F0A2
:101F400081115ADFEC2FF0E0EE0FFF1FEC55FF4F31
:101F5000A591B491EC91ED2381E090E009F480E04B
:101F6000DF91CF91089580E090E0FACFFC01918D50
:101F7000228D892F90E0805C9F4F821B91098F7387
:101F800099270895FC01918D828D981731F0828DEB
:101F9000E80FF11D858D90E008958FEF9FEF089574
:101FA000FC01918D828D981761F0A28DAE0FBF2F2D
:101FB000B11D5D968C91928D9F5F9F73928F90E083
:101FC00008958FEF9FEF0895FC01538D448D252FC9
:101FD00030E0842F90E0821B930B541710F0CF96C3
:101FE000089501970895FC01A48DA80FB92FB11D84
:101FF000A35ABF4F2C91848D90E001968F7399273F
:10200000848FA689B7892C93A089B1898C9183701C
:1020100080648C93938D848D981306C00288F38915
:10202000E02D80818F7D80830895CF93DF93EC0135
:10203000888D8823B1F0AA89BB89E889F9898C91B8
:1020400085FD03C0808186FD0CC00FB607FCF7CF6D
:102050008C9185FFF2CF808185FFEDCFCE01C3DF6C
:10206000EACFDF91CF910895EF92FF920F931F93E4
:10207000CF93DF93EC0181E0888F9B8D8C8D98133B
:102080001AC0E889F989808185FF15C09FB7F89447
:10209000EE89FF896083E889F98980818370806493
:1020A00080839FBF81E090E0DF91CF911F910F91DE
:1020B000FF90EF900895F62E0B8D10E00F5F1F4FED
:1020C0000F731127E02E8C8D8E110BC00FB607FCFD
:1020D000FACFE889F989808185FFF5CFCE0183DFCA
:1020E000F2CFEB8DEC0FFD2FF11DE35AFF4FF08285
:1020F0009FB7F8940B8FEA89FB8980818062D0CFEB
:10210000CF92DF92EF92FF921F93CF93DF93EC0178
:102110006A017B01122FE889F98982E08083C1146A
:1021200081EED806E104F10499F060E079E08DE3F6
:1021300090E0A70196014FD1215031094109510981
:102140005695479537952795211580E1380790F0EA
:10215000E889F989108260E874E88EE190E0A701CF
:10216000960139D1215031094109510956954795B8
:1021700037952795EC85FD853083EE85FF85208397
:10218000188EEC89FD891083EA89FB898081806142
:102190008083EA89FB89808188608083EA89FB8962
:1021A000808180688083EA89FB8980818F7D80833C
:1021B000DF91CF911F91FF90EF90DF90CF90089526
:1021C0001F920F920FB60F9211242F938F939F930C
:1021D000EF93FF93E0918901F0918A018081E09172
:1021E0008F01F091900182FD1BC09081809192013E
:1021F0008F5F8F7320919301821741F0E0919201DC
:10220000F0E0E758FE4F958F80939201FF91EF9198
:102210009F918F912F910F900FBE0F901F90189547
:102220008081F4CF1F920F920FB60F9211242F933B
:102230003F934F935F936F937F938F939F93AF934E
:10224000BF93EF93FF9389E791E0CDDEFF91EF918C
:10225000BF91AF919F918F917F916F915F914F91BE
:102260003F912F910F900FBE0F901F901895E9E7A7
:10227000F1E01382128288EE93E0A0E0B0E0848364
:102280009583A683B78387E191E09183808385EC72
:1022900090E09587848784EC90E09787868780EC30
:1022A00090E0918B808B81EC90E0938B828B82EC21
:1022B00090E0958B848B86EC90E0978B868B118ECB
:1022C000128E138E148E0895AF92BF92CF92DF922A
:1022D000EF92FF920F931F93CF93DF936C017B01DB
:1022E0008B01040F151FEB015E01AE18BF08C0176C
:1022F000D10759F06991D601ED91FC910190F081DF
:10230000E02DC6010995892B79F7C501DF91CF91A1
:102310001F910F91FF90EF90DF90CF90BF90AF9003
:1023200008954F925F926F927F92AF92BF92CF9239
:10233000DF92EF92FF920F931F93CF93DF93CDB76E
:10234000DEB729013A019B01AC0124193509460980
:10235000570989899A89AB89BC89BC01CD016A1961
:102360007B098C099D091CD0A80197012419350906
:102370004609570952D0CA01B9016A0D7B1D8C1D4F
:102380009D1DDF91CF911F910F91FF90EF90DF90F6
:10239000CF90BF90AF907F906F905F904F900895D7
:1023A000DB018F939F935BD0BF91AF91A29F800D74
:1023B000911DA39F900DB29F900D11240895991B1C
:1023C00079E004C0991F961708F0961B881F7A952C
:1023D000C9F780950895A1E21A2EAA1BBB1BFD0127
:1023E0000DC0AA1FBB1FEE1FFF1FA217B307E407F4
:1023F000F50720F0A21BB30BE40BF50B661F771F4C
:10240000881F991F1A9469F760957095809590952B
:102410009B01AC01BD01CF010895052E97FB16F479
:1024200000940FD057FD05D0D6DF07FC02D046F44C
:1024300008C050954095309521953F4F4F4F5F4FC5
:10244000089590958095709561957F4F8F4F9F4F20
:102450000895EE0FFF1F0590F491E02D099409D027
:10246000A59F900DB49F900DA49F800D911D1124E8
:102470000895A29FB001B39FC001A39F700D811D5D
:102480001124911DB29F700D811D1124911D08957D
:04249000F894FFCFEE
:102494000000B4420000B4420000B4420000B44260
:1024A400013B010000000034106411E40F1510B664
:0624B4000FD00FC20F0063
:00000001FF
